{
  "contractName": "PetHealthRegistry",
  "abi": [
    {
      "anonymous": false,
      "inputs": [
        {
          "indexed": true,
          "internalType": "address",
          "name": "petOwner",
          "type": "address"
        },
        {
          "indexed": false,
          "internalType": "string",
          "name": "description",
          "type": "string"
        },
        {
          "indexed": false,
          "internalType": "uint256",
          "name": "date",
          "type": "uint256"
        },
        {
          "indexed": false,
          "internalType": "address",
          "name": "vet",
          "type": "address"
        }
      ],
      "name": "HealthRecordAdded",
      "type": "event"
    },
    {
      "anonymous": false,
      "inputs": [
        {
          "indexed": true,
          "internalType": "address",
          "name": "owner",
          "type": "address"
        },
        {
          "indexed": false,
          "internalType": "string",
          "name": "name",
          "type": "string"
        },
        {
          "indexed": false,
          "internalType": "uint256",
          "name": "age",
          "type": "uint256"
        }
      ],
      "name": "PetRegistered",
      "type": "event"
    },
    {
      "anonymous": false,
      "inputs": [
        {
          "indexed": true,
          "internalType": "address",
          "name": "petOwner",
          "type": "address"
        },
        {
          "indexed": false,
          "internalType": "bool",
          "name": "isLost",
          "type": "bool"
        }
      ],
      "name": "PetReportedLost",
      "type": "event"
    },
    {
      "inputs": [
        {
          "internalType": "address",
          "name": "",
          "type": "address"
        },
        {
          "internalType": "uint256",
          "name": "",
          "type": "uint256"
        }
      ],
      "name": "petHealthRecords",
      "outputs": [
        {
          "internalType": "string",
          "name": "description",
          "type": "string"
        },
        {
          "internalType": "uint256",
          "name": "date",
          "type": "uint256"
        },
        {
          "internalType": "address",
          "name": "vet",
          "type": "address"
        }
      ],
      "stateMutability": "view",
      "type": "function",
      "constant": true
    },
    {
      "inputs": [
        {
          "internalType": "address",
          "name": "",
          "type": "address"
        }
      ],
      "name": "pets",
      "outputs": [
        {
          "internalType": "string",
          "name": "name",
          "type": "string"
        },
        {
          "internalType": "uint256",
          "name": "age",
          "type": "uint256"
        },
        {
          "internalType": "address",
          "name": "owner",
          "type": "address"
        },
        {
          "internalType": "bool",
          "name": "isLost",
          "type": "bool"
        }
      ],
      "stateMutability": "view",
      "type": "function",
      "constant": true
    },
    {
      "inputs": [
        {
          "internalType": "string",
          "name": "_name",
          "type": "string"
        },
        {
          "internalType": "uint256",
          "name": "_age",
          "type": "uint256"
        }
      ],
      "name": "registerPet",
      "outputs": [],
      "stateMutability": "nonpayable",
      "type": "function"
    },
    {
      "inputs": [
        {
          "internalType": "string",
          "name": "_description",
          "type": "string"
        },
        {
          "internalType": "uint256",
          "name": "_date",
          "type": "uint256"
        }
      ],
      "name": "addHealthRecord",
      "outputs": [],
      "stateMutability": "nonpayable",
      "type": "function"
    },
    {
      "inputs": [],
      "name": "getHealthRecords",
      "outputs": [
        {
          "components": [
            {
              "internalType": "string",
              "name": "description",
              "type": "string"
            },
            {
              "internalType": "uint256",
              "name": "date",
              "type": "uint256"
            },
            {
              "internalType": "address",
              "name": "vet",
              "type": "address"
            }
          ],
          "internalType": "struct PetHealthRegistry.HealthRecord[]",
          "name": "",
          "type": "tuple[]"
        }
      ],
      "stateMutability": "view",
      "type": "function",
      "constant": true
    },
    {
      "inputs": [
        {
          "internalType": "bool",
          "name": "_isLost",
          "type": "bool"
        }
      ],
      "name": "reportLost",
      "outputs": [],
      "stateMutability": "nonpayable",
      "type": "function"
    },
    {
      "inputs": [],
      "name": "getPetInfo",
      "outputs": [
        {
          "internalType": "string",
          "name": "name",
          "type": "string"
        },
        {
          "internalType": "uint256",
          "name": "age",
          "type": "uint256"
        },
        {
          "internalType": "bool",
          "name": "isLost",
          "type": "bool"
        }
      ],
      "stateMutability": "view",
      "type": "function",
      "constant": true
    }
  ],
  "bytecode": "0x608060405234801561001057600080fd5b50611582806100206000396000f3fe608060405234801561001057600080fd5b506004361061007d5760003560e01c80639506a28c1161005b5780639506a28c146100f1578063de6043bd1461010d578063f1a27ed81461013f578063f4080e601461015b5761007d565b8063088f0fb91461008257806346cbfc3a146100b557806387e4e3c6146100d5575b600080fd5b61009c60048036038101906100979190610d2a565b610179565b6040516100ac949392919061120b565b60405180910390f35b6100bd61025e565b6040516100cc93929190611257565b60405180910390f35b6100ef60048036038101906100ea9190610d8f565b6103d8565b005b61010b60048036038101906101069190610db8565b610551565b005b61012760048036038101906101229190610d53565b61077f565b604051610136939291906111cd565b60405180910390f35b61015960048036038101906101549190610db8565b61086e565b005b610163610a52565b6040516101709190611160565b60405180910390f35b600060205280600052604060002060009150905080600001805461019c90611466565b80601f01602080910402602001604051908101604052809291908181526020018280546101c890611466565b80156102155780601f106101ea57610100808354040283529160200191610215565b820191906000526020600020905b8154815290600101906020018083116101f857829003601f168201915b5050505050908060010154908060020160009054906101000a900473ffffffffffffffffffffffffffffffffffffffff16908060020160149054906101000a900460ff16905084565b606060008060008060003373ffffffffffffffffffffffffffffffffffffffff1673ffffffffffffffffffffffffffffffffffffffff1681526020019081526020016000206040518060800160405290816000820180546102be90611466565b80601f01602080910402602001604051908101604052809291908181526020018280546102ea90611466565b80156103375780601f1061030c57610100808354040283529160200191610337565b820191906000526020600020905b81548152906001019060200180831161031a57829003601f168201915b50505050508152602001600182015481526020016002820160009054906101000a900473ffffffffffffffffffffffffffffffffffffffff1673ffffffffffffffffffffffffffffffffffffffff1673ffffffffffffffffffffffffffffffffffffffff1681526020016002820160149054906101000a900460ff161515151581525050905080600001518160200151826060015193509350935050909192565b3373ffffffffffffffffffffffffffffffffffffffff166000803373ffffffffffffffffffffffffffffffffffffffff1673ffffffffffffffffffffffffffffffffffffffff16815260200190815260200160002060020160009054906101000a900473ffffffffffffffffffffffffffffffffffffffff1673ffffffffffffffffffffffffffffffffffffffff16146104a7576040517f08c379a000000000000000000000000000000000000000000000000000000000815260040161049e906112f5565b60405180910390fd5b806000803373ffffffffffffffffffffffffffffffffffffffff1673ffffffffffffffffffffffffffffffffffffffff16815260200190815260200160002060020160146101000a81548160ff0219169083151502179055503373ffffffffffffffffffffffffffffffffffffffff167ffa719879740530dfa725d2f76a04b0f727e4a8fb83ae644148081e40f9c7da8f826040516105469190611182565b60405180910390a250565b3373ffffffffffffffffffffffffffffffffffffffff166000803373ffffffffffffffffffffffffffffffffffffffff1673ffffffffffffffffffffffffffffffffffffffff16815260200190815260200160002060020160009054906101000a900473ffffffffffffffffffffffffffffffffffffffff1673ffffffffffffffffffffffffffffffffffffffff1614610620576040517f08c379a0000000000000000000000000000000000000000000000000000000008152600401610617906112b5565b60405180910390fd5b600160003373ffffffffffffffffffffffffffffffffffffffff1673ffffffffffffffffffffffffffffffffffffffff16815260200190815260200160002060405180606001604052808481526020018381526020013373ffffffffffffffffffffffffffffffffffffffff16815250908060018154018082558091505060019003906000526020600020906003020160009091909190915060008201518160000190805190602001906106d5929190610be0565b506020820151816001015560408201518160020160006101000a81548173ffffffffffffffffffffffffffffffffffffffff021916908373ffffffffffffffffffffffffffffffffffffffff16021790555050503373ffffffffffffffffffffffffffffffffffffffff167f96d97af96a6c237905c1550c6e0bb1ba7eb1087be2ea3d1ed90c66baf0041bb3838333604051610773939291906111cd565b60405180910390a25050565b6001602052816000526040600020818154811061079b57600080fd5b9060005260206000209060030201600091509150508060000180546107bf90611466565b80601f01602080910402602001604051908101604052809291908181526020018280546107eb90611466565b80156108385780601f1061080d57610100808354040283529160200191610838565b820191906000526020600020905b81548152906001019060200180831161081b57829003601f168201915b5050505050908060010154908060020160009054906101000a900473ffffffffffffffffffffffffffffffffffffffff16905083565b60008251116108b2576040517f08c379a00000000000000000000000000000000000000000000000000000000081526004016108a9906112d5565b60405180910390fd5b600081116108f5576040517f08c379a00000000000000000000000000000000000000000000000000000000081526004016108ec90611295565b60405180910390fd5b60405180608001604052808381526020018281526020013373ffffffffffffffffffffffffffffffffffffffff168152602001600015158152506000803373ffffffffffffffffffffffffffffffffffffffff1673ffffffffffffffffffffffffffffffffffffffff1681526020019081526020016000206000820151816000019080519060200190610989929190610be0565b506020820151816001015560408201518160020160006101000a81548173ffffffffffffffffffffffffffffffffffffffff021916908373ffffffffffffffffffffffffffffffffffffffff16021790555060608201518160020160146101000a81548160ff0219169083151502179055509050503373ffffffffffffffffffffffffffffffffffffffff167fc8af4777f1b11f862e1c2200138e0f7de8c4473efb6a7ba50dd73264431e71998383604051610a4692919061119d565b60405180910390a25050565b6060600160003373ffffffffffffffffffffffffffffffffffffffff1673ffffffffffffffffffffffffffffffffffffffff168152602001908152602001600020805480602002602001604051908101604052809291908181526020016000905b82821015610bd75783829060005260206000209060030201604051806060016040529081600082018054610ae690611466565b80601f0160208091040260200160405190810160405280929190818152602001828054610b1290611466565b8015610b5f5780601f10610b3457610100808354040283529160200191610b5f565b820191906000526020600020905b815481529060010190602001808311610b4257829003601f168201915b50505050508152602001600182015481526020016002820160009054906101000a900473ffffffffffffffffffffffffffffffffffffffff1673ffffffffffffffffffffffffffffffffffffffff1673ffffffffffffffffffffffffffffffffffffffff168152505081526020019060010190610ab3565b50505050905090565b828054610bec90611466565b90600052602060002090601f016020900481019282610c0e5760008555610c55565b82601f10610c2757805160ff1916838001178555610c55565b82800160010185558215610c55579182015b82811115610c54578251825591602001919060010190610c39565b5b509050610c629190610c66565b5090565b5b80821115610c7f576000816000905550600101610c67565b5090565b6000610c96610c9184611346565b611315565b905082815260208101848484011115610cae57600080fd5b610cb9848285611424565b509392505050565b600081359050610cd081611507565b92915050565b600081359050610ce58161151e565b92915050565b600082601f830112610cfc57600080fd5b8135610d0c848260208601610c83565b91505092915050565b600081359050610d2481611535565b92915050565b600060208284031215610d3c57600080fd5b6000610d4a84828501610cc1565b91505092915050565b60008060408385031215610d6657600080fd5b6000610d7485828601610cc1565b9250506020610d8585828601610d15565b9150509250929050565b600060208284031215610da157600080fd5b6000610daf84828501610cd6565b91505092915050565b60008060408385031215610dcb57600080fd5b600083013567ffffffffffffffff811115610de557600080fd5b610df185828601610ceb565b9250506020610e0285828601610d15565b9150509250929050565b6000610e1883836110f2565b905092915050565b610e29816113dc565b82525050565b610e38816113dc565b82525050565b6000610e4982611386565b610e5381856113a9565b935083602082028501610e6585611376565b8060005b85811015610ea15784840389528151610e828582610e0c565b9450610e8d8361139c565b925060208a01995050600181019050610e69565b50829750879550505050505092915050565b610ebc816113ee565b82525050565b6000610ecd82611391565b610ed781856113ba565b9350610ee7818560208601611433565b610ef0816114f6565b840191505092915050565b6000610f0682611391565b610f1081856113cb565b9350610f20818560208601611433565b610f29816114f6565b840191505092915050565b6000610f416020836113cb565b91507f4c612065646164206465626520736572206d61796f7220717565206365726f2e6000830152602082019050919050565b6000610f816043836113cb565b91507f536f6c6f20656c2070726f706965746172696f206465206c61206d6173636f7460008301527f61207075656465206167726567617220726567697374726f732064652073616c60208301527f75642e00000000000000000000000000000000000000000000000000000000006040830152606082019050919050565b600061100d6027836113cb565b91507f456c206e6f6d627265206465206c61206d6173636f7461206573206f626c696760008301527f61746f72696f2e000000000000000000000000000000000000000000000000006020830152604082019050919050565b6000611073604b836113cb565b91507f536f6c6f20656c2070726f706965746172696f206465206c61206d6173636f7460008301527f61207075656465207265706f727461722061206c61206d6173636f746120636f60208301527f6d6f20706572646964612e0000000000000000000000000000000000000000006040830152606082019050919050565b6000606083016000830151848203600086015261110f8282610ec2565b91505060208301516111246020860182611142565b5060408301516111376040860182610e20565b508091505092915050565b61114b8161141a565b82525050565b61115a8161141a565b82525050565b6000602082019050818103600083015261117a8184610e3e565b905092915050565b60006020820190506111976000830184610eb3565b92915050565b600060408201905081810360008301526111b78185610efb565b90506111c66020830184611151565b9392505050565b600060608201905081810360008301526111e78186610efb565b90506111f66020830185611151565b6112036040830184610e2f565b949350505050565b600060808201905081810360008301526112258187610efb565b90506112346020830186611151565b6112416040830185610e2f565b61124e6060830184610eb3565b95945050505050565b600060608201905081810360008301526112718186610efb565b90506112806020830185611151565b61128d6040830184610eb3565b949350505050565b600060208201905081810360008301526112ae81610f34565b9050919050565b600060208201905081810360008301526112ce81610f74565b9050919050565b600060208201905081810360008301526112ee81611000565b9050919050565b6000602082019050818103600083015261130e81611066565b9050919050565b6000604051905081810181811067ffffffffffffffff8211171561133c5761133b6114c7565b5b8060405250919050565b600067ffffffffffffffff821115611361576113606114c7565b5b601f19601f8301169050602081019050919050565b6000819050602082019050919050565b600081519050919050565b600081519050919050565b6000602082019050919050565b600082825260208201905092915050565b600082825260208201905092915050565b600082825260208201905092915050565b60006113e7826113fa565b9050919050565b60008115159050919050565b600073ffffffffffffffffffffffffffffffffffffffff82169050919050565b6000819050919050565b82818337600083830152505050565b60005b83811015611451578082015181840152602081019050611436565b83811115611460576000848401525b50505050565b6000600282049050600182168061147e57607f821691505b6020821081141561149257611491611498565b5b50919050565b7f4e487b7100000000000000000000000000000000000000000000000000000000600052602260045260246000fd5b7f4e487b7100000000000000000000000000000000000000000000000000000000600052604160045260246000fd5b6000601f19601f8301169050919050565b611510816113dc565b811461151b57600080fd5b50565b611527816113ee565b811461153257600080fd5b50565b61153e8161141a565b811461154957600080fd5b5056fea2646970667358221220bb4a81433c906680569a1837e30f1da289b3b2744ee5aa80d851f9ea7dfc2d6664736f6c63430008000033",
  "immutableReferences": {},
  "source": "// SPDX-License-Identifier: MIT\r\npragma solidity ^0.8.0;\r\n\r\ncontract PetHealthRegistry {\r\n    struct HealthRecord {\r\n        string description;  // Descripcin del registro de salud\r\n        uint256 date;        // Fecha del registro en segundos desde el epoch\r\n        address vet;         // Direccin del veterinario\r\n    }\r\n\r\n    struct Pet {\r\n        string name;         // Nombre de la mascota\r\n        uint256 age;         // Edad de la mascota\r\n        address owner;       // Direccin del propietario\r\n        bool isLost;         // Indica si la mascota est perdida\r\n    }\r\n\r\n    // Mappings\r\n    mapping(address => Pet) public pets;  // Informacin de las mascotas por direccin del propietario\r\n    mapping(address => HealthRecord[]) public petHealthRecords;  // Registros de salud por direccin de propietario\r\n\r\n    // Eventos\r\n    event PetRegistered(address indexed owner, string name, uint256 age);\r\n    event HealthRecordAdded(address indexed petOwner, string description, uint256 date, address vet);\r\n    event PetReportedLost(address indexed petOwner, bool isLost);\r\n\r\n    // Funcin para registrar una nueva mascota\r\n    function registerPet(string memory _name, uint256 _age) public {\r\n        require(bytes(_name).length > 0, \"El nombre de la mascota es obligatorio.\");\r\n        require(_age > 0, \"La edad debe ser mayor que cero.\");\r\n\r\n        pets[msg.sender] = Pet({\r\n            name: _name,\r\n            age: _age,\r\n            owner: msg.sender,\r\n            isLost: false\r\n        });\r\n\r\n        emit PetRegistered(msg.sender, _name, _age);\r\n    }\r\n\r\n    // Funcin para agregar un registro de salud\r\n    function addHealthRecord(string memory _description, uint256 _date) public {\r\n        require(pets[msg.sender].owner == msg.sender, \"Solo el propietario de la mascota puede agregar registros de salud.\");\r\n\r\n        petHealthRecords[msg.sender].push(HealthRecord({\r\n            description: _description,\r\n            date: _date,\r\n            vet: msg.sender  // Usar msg.sender como vet\r\n        }));\r\n\r\n        emit HealthRecordAdded(msg.sender, _description, _date, msg.sender);\r\n    }\r\n\r\n    // Funcin para obtener los registros de salud de una mascota\r\n    function getHealthRecords() public view returns (HealthRecord[] memory) {\r\n        return petHealthRecords[msg.sender];\r\n    }\r\n\r\n    // Funcin para marcar una mascota como perdida\r\n    function reportLost(bool _isLost) public {\r\n        require(pets[msg.sender].owner == msg.sender, \"Solo el propietario de la mascota puede reportar a la mascota como perdida.\");\r\n\r\n        pets[msg.sender].isLost = _isLost;\r\n\r\n        emit PetReportedLost(msg.sender, _isLost);\r\n    }\r\n\r\n    // Funcin para obtener la informacin de una mascota\r\n    function getPetInfo() public view returns (string memory name, uint256 age, bool isLost) {\r\n        Pet memory pet = pets[msg.sender];\r\n        return (pet.name, pet.age, pet.isLost);\r\n    }\r\n}\r\n",
  "sourcePath": "C:\\Users\\ANDRES\\Desktop\\Blockchain\\Blockchain_mascota\\contracts\\PetHealthRegistry.sol",
  "compiler": {
    "name": "solc",
    "version": "0.8.0+commit.c7dfd78e.Emscripten.clang"
  },
  "schemaVersion": "3.4.16",
  "updatedAt": "2024-08-30T21:33:10.112Z",
  "networkType": "ethereum",
  "devdoc": {
    "kind": "dev",
    "methods": {},
    "version": 1
  },
  "userdoc": {
    "kind": "user",
    "methods": {},
    "version": 1
  }
}